:020000040800F2
:10000000500800204501000859080008930700081F
:100010005508000819030008971B0008000000009D
:10002000000000000000000000000000890C000833
:100030001D03000800000000050B00089D0D0008CE
:100040005F0100085F0100085F0100085F01000810
:100050005F0100085F0100085F0100085F01000800
:100060005F01000821030008710300085F01000818
:100070005F0100085F0100085F0100085F010008E0
:100080005F0100085F0100085F0100085F010008D0
:100090005F0100085F0100085F0100085F010008C0
:1000A0005F0100085F0100085F0100085F010008B0
:1000B0005F01000835110008D51200085F01000833
:1000C0005F0100085F0100085F0100085F01000890
:1000D0005F010008711900085F0100085F01000856
:1000E0005F0100085F0100085F0100085F01000870
:1000F0005F0100085F0100085F0100085F01000860
:100100005F0100085F0100085F0100085F0100084F
:100110005F0100085F0100085F0100085F0100083F
:100120005F0100085F0100085F0100085F0100082F
:10013000DFF80CD000F018F800480047491C000810
:10014000500800200648804706480047FEE7FEE7C3
:10015000FEE7FEE7FEE7FEE7FEE7FEE7FEE7FEE777
:10016000A10D000831010008064C074D06E0E068CB
:1001700040F0010394E8070098471034AC42F6D3EE
:10018000FFF7DAFFA41D0008C41D000821B1826832
:1001900042F00102826003E0826822F00102826084
:1001A0007047000010B504461248844208D101216E
:1001B000401500F0D5FC0021601500F0D1FC17E0DF
:1001C0000D48844208D10121001500F0C9FC00212E
:1001D000201500F0C5FC0BE00848844208D101213D
:1001E000C80300F0BDFC00214FF4004000F0B8FC53
:1001F00010BD00000024014000280140003C0140E7
:10020000014600208A6802F004020AB1012000E0E1
:1002100000207047014600208A6802F008020AB1F7
:10022000012000E00020704730B502460020002386
:1002300050680F4C20400D790C6844EA0524204397
:10024000506090680B4C2040D1E902542C434D790A
:1002500044EA450420439060D06A20F470000C7C8E
:10026000641EE4B2234340EA0350D06230BD000074
:10027000FFFEF0FFFDF7F1FF816841F008018160AA
:100280007047816841F004018160704700B587B014
:1002900001214FF4017000F053FC4FF4004000F0D6
:1002A00033FC0220ADF8040000208DF8070001A9FE
:1002B000174800F08BF91748FFF774FF00200290F1
:1002C0008DF80C008DF80D004FF460200490002094
:1002D000059001208DF8180002A90E48FFF7A4FF31
:1002E00001210C48FFF752FF0A48FFF7C5FF00BF86
:1002F0000848FFF78FFF0028FAD10648FFF7C1FF33
:1003000000BF0448FFF77CFF0028FAD107B000BD0A
:10031000000801400024014000BFFEE770470000D4
:1003200010B50A2001F06AFC08210E4800F022FAFC
:10033000A0B90D480068042803D101200A490860CB
:1003400004E009480068401C074908600748006845
:1003500008B9012000E0002004490860082000F0EE
:100360008BF810BD001801400400002094012342C6
:1003700010B50A2001F042FC10210E4800F0FAF9F5
:1003800098B900200C4908600C48006808B90120A1
:1003900000E00020094908600948D0F8940108B934
:1003A000012000E0002007490860102000F064F8F8
:1003B00010BD00000018014004000020948121427B
:1003C00000002342940123420EB500F0E5F901211B
:1003D000084600F0B5FB0321042000F0D7F8082000
:1003E000019000208DF808000C208DF8090001A86C
:1003F00000F048F80421084600F0C8F810200190E9
:1004000001A800F03FF80021084600F0BFF80120E5
:10041000019008208DF8090001A800F033F80620AB
:100420008DF8000002208DF8010003208DF80200F5
:1004300001208DF80300684600F010FA09208DF8BD
:10044000000002208DF8010001208DF802008DF8D7
:100450000300684600F002FA0A208DF8000002202E
:100460008DF8010000208DF8020001208DF80300B6
:10047000684600F0F3F90EBD0149086070470000BE
:1004800014040140002123498279002A3AD00A4607
:10049000126803689A430B461A600A1D12680368C3
:1004A0009A430B1D1A60027911440A6803681A43C3
:1004B0000A60184A0832126803689A43154B0833D9
:1004C0001A601A1D126803689A43124B0C331A60A3
:1004D0004279102A0ED11A1F126803681A430D4B75
:1004E00008331A601A1D126803681A43094B0C334B
:1004F0001A600DE00749427911440A6803681A43FB
:100500000A6005E0027911440A6803689A430A60A8
:10051000704700000004014010B501201849086030
:1005200000201849C1F884010120154908310860EC
:100530000020091D08600120091D08600020091D18
:1005400008600120091D086000200E49C1F89C01C7
:1005500040F2DC510C4801F082F940F2DC510A48CB
:1005600001F07FF940F2DC514FF0804001F07BF95F
:1005700040F2DC514FF0804001F077F910BD0000EF
:1005800080812342008023420004004030B50022D5
:100590008B071C0F0F2303FA04F20B4B8C1053F83C
:1005A00024309343084C8D1044F8253023468C109A
:1005B00053F824308C07240F00FA04F42343024C30
:1005C0008D1044F8253030BD080001402DE9F04180
:1005D000024600250026002000230024002791F871
:1005E00003C00CF00F0591F803C00CF0100CBCF127
:1005F000000F03D091F802C04CEA050591F800C045
:10060000BCF1000F31D0146800202BE04FF0010C3A
:100610000CFA00F3B1F800C00CEA03069E4220D1A8
:1006200083004FF00F0C0CFA03F7BC4305FA03FCF0
:100630004CEA040491F803C0BCF1280F06D14FF036
:10064000010C0CFA00FCC2F814C00AE091F803C0D7
:10065000BCF1480F05D14FF0010C0CFA00FCC2F8B8
:1006600010C0401C0828D1D31460B1F800C0BCF100
:10067000FF0F34DD546800202EE000F1080C4FF02D
:10068000010808FA0CF3B1F800C00CEA03069E4218
:1006900021D183004FF00F0C0CFA03F7BC4305FA8D
:1006A00003FC4CEA040491F803C0BCF1280F05D107
:1006B00000F1080C08FA0CF8C2F8148091F803C095
:1006C000BCF1480F07D100F1080C4FF0010808FAFF
:1006D0000CF8C2F81080401C0828CED35460BDE846
:1006E000F0810000F0B50A46002300240021002517
:1006F00000F00046B6F1004F02D11D4EF16901E055
:100700001B4E7168C0F3034583B200F44016B6F582
:10071000401F08D121F07061154E766826F0706692
:10072000134F7E6012E000F48016B6F5801F06D1EC
:10073000032606FA05F4A14341F0706106E0460D78
:10074000360103FA06F6B14341F0706122B1460D5D
:10075000360103FA06F6314300F00046B6F1004FC9
:1007600002D1034EF16101E0014E7160F0BD000065
:10077000000001400246002093680B400BB10120AD
:1007800000E0002070474161704701617047C1601F
:10079000704700BFFEE7000008B50121442000F0CB
:1007A000CFF91820ADF8000048208DF80300694605
:1007B0000648FFF70BFF0120ADF8000028208DF858
:1007C000030069460248FFF701FF08BD0018014019
:1007D0000008014008B50121802000F0B1F9FF2098
:1007E000ADF8000010208DF8030003208DF8020002
:1007F00069460448FFF7EAFEFF210248FFF7C5FFFC
:1008000008BD0000001C014008B50121482000F08F
:1008100097F92020ADF8000010208DF80300032088
:100820008DF8020069460948FFF7D0FE20210748ED
:10083000FFF7ABFF2020ADF8000069460448FFF742
:10084000C5FE20210248FFF7A0FF08BD000C0140B3
:100850000018014000BFFEE77047000070B500219E
:1008600000230F22C47804B3154C246804F4E06418
:10087000C4F5E064210AC1F10403CA40447804FAD3
:1008800003F184781440214309010E4C0678A155E8
:10089000047804F01F050124AC4005786D11AD000B
:1008A00005F1E025C5F8004109E0047804F01F05D2
:1008B0000124AC40044D0678761145F8264070BD01
:1008C0000CED00E000E400E080E100E002490143BB
:1008D000024A1160704700000000FA050CED00E0CC
:1008E00070B500240CE0002506E00020074901EB6C
:1008F000C5010855681CC5B2802DF6DB601CC4B26A
:10090000082CF0DB00F0B8F870BD00004E000020AD
:1009100008B501214FF4987000F012F94820ADF8A5
:10092000000010208DF8030003208DF802006946B6
:100930004A48FFF74BFE48214848FFF726FFFF20B3
:10094000ADF8000069464648FFF740FEFF214448E5
:10095000FFF71BFF4FF46040ADF8000069464148C7
:10096000FFF734FE4FF460413E48FFF70EFF0120D1
:100970003D4908603D49C1F88C0100203C490860B0
:10098000642001F03BF901203A49C1F8BC01002183
:10099000AE2000F097F80021D52000F093F8002158
:1009A000502000F08FF80021A82000F08BF80021E3
:1009B0003F2000F087F80021D32000F083F80021C9
:1009C000084600F07FF80021402000F07BF800216D
:1009D0008D2000F077F80021142000F073F800213A
:1009E000202000F06FF80021022000F06BF80021B9
:1009F000A12000F067F80021C02000F063F800217A
:100A0000DA2000F05FF80021122000F05BF80021EE
:100A1000812000F057F80021EF2000F053F800216A
:100A2000D92000F04FF80021F12000F04BF8002110
:100A3000DB2000F047F80021302000F043F80021CF
:100A4000A42000F03FF80021A62000F03BF8002190
:100A5000AF2000F037F8FFF743FF08BD0014014056
:100A60000010014000200140988122420080224273
:100A7000BC0124420000244270B500241CE004F1B3
:100A8000B001C8B2002100F01DF80021084600F0B6
:100A900019F80021102000F015F8002508E0084999
:100AA00001EBC501085D012100F00CF8681CC5B21E
:100AB000802DF4DB601CC4B2082CE0DB70BD0000AC
:100AC0004E00002070B504460D4621460948FFF748
:100AD0005EFE0948056000200849C1F898010849F0
:100AE00008600120086004490C3108600349C1F81E
:100AF0008C0170BD001001408C8122420080224296
:100B0000B80124427047000001460020034A5068A3
:100B100020F440400843506070470000001002403D
:100B200029B1064AD2690243044BDA6104E0034A60
:100B3000D2698243014BDA61704700000010024025
:100B400029B1064A92690243044B9A6104E0034AC0
:100B500092698243014B9A61704700000010024085
:100B600029B1064AD2680243044BDA6004E0034A22
:100B7000D2688243014BDA607047000000100240E7
:100B800030B500210022002400232D4D6D6805F0B2
:100B90000C0121B1042905D0082923D105E0294DF4
:100BA000056022E0274D05601FE0254D6D6805F4C6
:100BB0007012234D6D6805F48034022505EB9242D6
:100BC0001CB9214D554305600BE01D4D6D6805F4C2
:100BD00000351DB11C4D5543056002E0194D5543CC
:100BE000056002E0174D056000BF00BF144D6D6841
:100BF00005F0F0010909154D6B5C0568DD404560A5
:100C00000F4D6D6805F4E061090A104D6B5C456895
:100C1000DD4085600A4D6D6805F46051C90A0B4DD1
:100C20006B5C4568DD40C560054D6D6805F440416D
:100C3000890B074D6B5CC568B5FBF3F5056130BDED
:100C40000010024000127A0000093D003000002030
:100C50004000002008B501210802FFF771FF0220C3
:100C6000ADF8000010208DF8030003208DF802007D
:100C700069460448FFF7AAFC4FF400410148FFF71A
:100C800084FD08BD00200140704710B500F002F857
:100C900010BD00000CB500200190009033480068A2
:100CA00040F480303149086000BF3048006800F4EB
:100CB000003000900198401C0190009818B90198EC
:100CC000B0F5A06FF1D12948006800F4003010B1F0
:100CD0000120009001E0002000900098012843D1FD
:100CE0002348006840F01000214908600846006869
:100CF00020F0030008600846006840F00200086029
:100D00001A484068194948600846406848600846E3
:100D1000406840F4806048600846406820F47C10D9
:100D200048600846406840F4E8104860084600689B
:100D300040F08070086000BF0C48006800F0007050
:100D40000028F9D00948406820F0030007494860AE
:100D50000846406840F00200486000BF0348406811
:100D600000F00C000828F9D10CBD00000010024072
:100D700000200240042808D14FF0E021096941F029
:100D800004014FF0E022116107E04FF0E021096912
:100D900021F004014FF0E02211617047704700001C
:100DA00010B51348006840F001001149086008467A
:100DB0004068104908400E494860084600680E49DE
:100DC00008400B4908600846006820F4802008604D
:100DD0000846406820F4FE0048604FF41F00886019
:100DE000FFF753FF4FF000600449086010BD00009A
:100DF000001002400000FFF8FFFFF6FE08ED00E0E3
:100E000008B501218020FFF79BFE01210748FFF76D
:100E100069FC4FF47040ADF8000028208DF8030005
:100E200069460348FFF7D2FB08BD0000000230000E
:100E3000000C0140F0B50C46154600220021068C3E
:100E40004FF6FE773E400684028B018C4FF60C76FF
:100E500032407E1C06EA03162E433243104EB04247
:100E60000ED0104EB0420BD0B0F1804F08D00E4ED5
:100E7000B04205D00D4EB04202D00D4EB04206D168
:100E80004FF6FD76314044F00106314305E04FF660
:100E9000F576314044F00106314302830184F0BD10
:100EA000002C0140003401400004004000080040D4
:100EB000000C0040F0B50C4615460022002100262B
:100EC000078C4FF6EF7C07EA0C070784028B018C36
:100ED0004FF6FF7707EA041640F6FF473A404FF611
:100EE000FF7707EA03373A434FF6FF7707EA05270C
:100EF0003A43114FB8420ED0104FB8420BD0B0F168
:100F0000804F08D00E4FB84205D00E4FB84202D0E5
:100F10000D4FB84206D14FF6DF77394046F0100743
:100F2000394305E04FF65F77394044F01007394305
:100F300002830184F0BD0000002C01400034014018
:100F40000004004000080040000C0040F0B50C46D2
:100F50001546002200210026078C4FF6FF6C07EA99
:100F60000C070784828B018C4FF6FF7707EA042673
:100F70004FF60C773A404FF6FF7707EA03172F43F7
:100F80003A43114FB8420ED0104FB8420BD0B0F1D7
:100F9000804F08D00E4FB84205D00E4FB84202D055
:100FA0000D4FB84206D14FF6FF57394046F48077CF
:100FB000394305E04FF2FF57394044F48077394315
:100FC00082830184F0BD0000002C01400034014008
:100FD0000004004000080040000C0040F0B50C4642
:100FE0001546002200210026078C4EF6FF7C07EAFA
:100FF0000C070784828B018C4FF6FF7707EA0436D3
:1010000040F6FF473A404FF6FF7707EA05273A4395
:101010004FF6FF7707EA03373A43114FB8420ED035
:10102000104FB8420BD0B0F1804F08D00E4FB842ED
:1010300005D00E4FB84202D00D4FB84206D14DF642
:10104000FF77394046F48057394305E047F6FF57AC
:10105000394044F48057394382830184F0BD000055
:10106000002C014000340140000400400008004012
:10107000000C004030B589B005460C4601210846F9
:10108000FFF74EFD01210920FFF75AFD01212748F6
:10109000FFF728FB4FF48060ADF8200018208DF892
:1010A000230003208DF8220008A92148FFF78EFABB
:1010B0004FF40060ADF8200018208DF823000320C5
:1010C0008DF8220008A91A48FFF780FAADF81850E9
:1010D000ADF814400020ADF81A00ADF8160005A9CF
:1010E0004FF0804000F0F2FB7020ADF804000120CA
:1010F000ADF806000020ADF80C0001A94FF08040CB
:1011000000F008FB0821C80600F054FB01A94FF0CD
:10111000804000F059FB0821C80600F093FB012134
:10112000880700F0A6F909B030BD000000021800E1
:10113000000C014010B50121084800F0B8F958B181
:101140000121064800F092F90548006808B901201D
:1011500000E000200249086010BD000000040040CB
:101160009401234230B589B005460C460121022086
:10117000FFF7D6FC01210520FFF7E2FC4020ADF887
:10118000200018208DF8230003208DF8220008A9E4
:101190002248FFF71BFA8020ADF8200018208DF8B8
:1011A000230003208DF8220008A91C48FFF70EFA3F
:1011B000ADF81850ADF814400020ADF81A00ADF8A5
:1011C000160005A9164800F081FB7020ADF8040058
:1011D0000120ADF806000020ADF80C0001A9104870
:1011E00000F0D6F908210E4800F01EFA7020ADF884
:1011F00004000120ADF806000020ADF80C0001A9A4
:10120000074800F01BFA0821054800F076FA012192
:10121000034800F02EF909B030BD0000000801407D
:101220000004004030B585B005460C46012104207D
:10123000FFF776FC01210820FFF782FC012108035B
:10124000FFF750FA8020ADF8100028208DF8130029
:1012500004A91D48FFF7BAF980211B48FFF793FA4C
:10126000ADF80850ADF804400020ADF80A00ADF824
:10127000060001A9154800F029FB04201449088044
:1012800000204880012088800020C88008810F4805
:1012900000F01EF91E208DF8000002208DF80100DC
:1012A00000208DF8020001208DF803006846FFF74A
:1012B000D5FA01220521054800F060F90121034813
:1012C00000F0D7F805B030BD000C01400008004028
:1012D0004400002010B52C48007800F08000002861
:1012E0004CD10121294800F0E2F8D0B1264800781D
:1012F00000F04000A8B12448007800F03F003F28EB
:101300000AD12148007840F080001F4908704FF64C
:10131000FF701F49088004E01B480078401C1A49F0
:1013200008700421194800F0C2F838B31648007854
:1013300000F0400078B11448007840F08000124975
:101340000870124800F0B0F81149088000210F48D9
:1013500000F0C6F912E000200B4908700C49088023
:1013600000210A4800F084FA0748007840F0400065
:10137000054908700221054800F0B2F9052103482B
:1013800000F074F810BD00002800002000080040A4
:101390002A00002030B589B005460C460121042002
:1013A000FFF7BEFB01210920FFF7CAFB012108035B
:1013B000FFF798F94FF45070ADF8200018208DF821
:1013C000230003208DF8220008A92648FFF7FEF825
:1013D000ADF81850ADF814400020ADF81A00ADF883
:1013E000160005A9204800F071FA7020ADF804003D
:1013F0000120ADF806000220ADF80C0001A91A4842
:1014000000F0C6F80821184800F00EF97020ADF879
:1014100004000120ADF806000220ADF80C0001A97F
:10142000114800F077F908210F4800F0C3F9702047
:10143000ADF804000120ADF806000020ADF80C0066
:1014400001A9094800F0C0F90821074800F0FAF99D
:101450000121054800F00DF80121034800F015F8BE
:1014600009B030BD000C014000080040CA430282B0
:10147000704721B1028842F00102028004E0028834
:101480004FF6FE731A400280704731B1B0F8442025
:1014900042F40042A0F8442005E0B0F84420C2F332
:1014A0000E02A0F8442070470146088F704730B5FF
:1014B0000246002000230024158A05EA01039589CD
:1014C00005EA010413B10CB1012000E0002030BD99
:1014D00070B505460C46244885420ED02348854207
:1014E0000BD0B5F1804F08D02148854205D0214866
:1014F000854202D02048854200D100E000BF20880C
:1015000050B92389A28861882846FFF793FCE188B7
:10151000284600F0AFF925E0208804280AD1238965
:10152000A28861882846FFF7C5FCE188284600F0BC
:10153000AAF917E0208808280AD12389A28861889F
:101540002846FFF703FDE188284600F0A9F909E0E5
:101550002389A28861882846FFF740FDE188284654
:1015600000F0A7F970BD0000002C014000340140DC
:101570000004004000080040000C00401AB18389BC
:101580000B43838102E083898B4383817047000092
:1015900070B5002400220023058C4FF6FE763540FE
:1015A0000584028C8388048B4FF68F752C40B51E02
:1015B0002C400D882C43751E2A400D892A434D88E6
:1015C0002A43144DA8420BD0134DA84208D0134D06
:1015D000A84205D0124DA84202D0124DA84213D104
:1015E0004FF6F7752A404D892A434FF6FB752A407E
:1015F0008D882A434FF6FF652B404FF6FF552B4051
:101600008D892B43CD892B4383800483CD888586A8
:10161000028470BD002C01400034014000400140B4
:1016200000440140004801400A460021018B4FF66A
:10163000F7731940114301837047000070B500240F
:1016400000220023058C4FF6EF7635400584028C8E
:101650008388048B48F6FF752C404FF6FF452C40DD
:101660000D884FF6FF7606EA05252C434FF6DF7509
:101670002A400D8906EA05152A434D8806EA051514
:101680002A43154DA84202D0144DA8421DD14FF651
:101690007F752A404D894FF6FF7606EA05152A43E5
:1016A0004FF6BF752A408D8806EA05152A434FF686
:1016B000FF352B404FF2FF752B408D8906EA8505DB
:1016C0002B43CD8906EA85052B4383800483CD888F
:1016D0000587028470BD0000002C014000340140E9
:1016E0000A460021018C4FF6DF7319404FF6FF7355
:1016F00003EA02131943018470470A460021018B53
:101700004FF2FF7319404FF6FF7303EA02231943A8
:101710000183704770B5002400220023058C4FF62A
:10172000FF6635400584028C8388848B4FF68F7565
:101730002C404FF6FC752C400D882C434FF6FF557E
:101740002A400D894FF6FF7606EA05252A434D8883
:1017500006EA05252A43154DA84202D0144DA84299
:101760001DD14FF2FF752A404D894FF6FF7606EAEC
:1017700005252A434FF6FF352A408D8806EA0525C0
:101780002A434EF6FF752B404DF6FF752B408D8991
:1017900006EA05152B43CD8906EA05152B43838000
:1017A0008483CD888587028470BD0000002C0140B1
:1017B000003401400A460021818B4FF6F77319402F
:1017C000114381837047000070B50022002300247C
:1017D000058C4EF6FF7635400584038C8488828B19
:1017E00048F6FF752A404FF6FF452A400D884FF610
:1017F000FF7606EA05252A434DF6FF752B400D8935
:1018000006EA05352B434D8806EA05352B430B4D7B
:10181000A84202D00A4DA84208D14BF6FF752C40D1
:101820008D894FF6FF7606EA85152C4384808283E6
:10183000CD88A0F84050038470BD0000002C01400A
:10184000003401400A460021818B4FF2FF7319409A
:101850004FF6FF7303EA02231943818370478186A1
:1018600070470187704781877047A0F84010704724
:1018700081847047028B4FF6F3731A400283028B08
:101880000A4302837047028B4FF2FF331A400283F0
:10189000028B4FF6FF7303EA01231A43028370475A
:1018A000828B4FF6F3731A408283828B0A438283C2
:1018B0007047828B4FF2FF331A408283828B4FF640
:1018C000FF7303EA01231A438283704700220288D0
:1018D0001D4B98420ED01D4B98420BD0B0F1804F5B
:1018E00008D01B4B984205D01A4B984202D01A4B95
:1018F000984204D14FF68F731A404B881A43174B06
:10190000984207D0164B984204D04FF6FF431A4036
:10191000CB881A4302808B8883850B8803850A4B0A
:1019200098420BD0094B984208D00E4B984205D0F4
:101930000D4B984202D00D4B984201D10B7A038691
:101940000123838270470000002C014000340140D5
:101950000004004000080040000C0040001000405F
:101960000014004000400140004401400048014094
:1019700010B540F225511E4800F04CF8002835D033
:101980001B4800F003F9C4B2412C02D101201949CF
:101990000860422C02D1022016490860432C02D173
:1019A000032014490860442C02D104201149086026
:1019B000452C02D105200F490860462C02D1012098
:1019C0000D490860472C02D102200B490860482CC1
:1019D00002D1032008490860492C02D1042006499D
:1019E00008604A2C02D100200349086010BD0000A5
:1019F00000380140000000200400002021B182894D
:101A000042F40052828104E082894DF6FF731A404D
:101A10008281704770B50246002400230025002013
:101A200040F66A16B14200D100BFC1F3421501F081
:101A30001F03012606FA03F3012D02D196893340D4
:101A400006E0022D02D1168A334001E0968A334027
:101A50000C12012606FA04F41688344013B10CB1B6
:101A6000012000E0002070BDF0B5034600240026F0
:101A70000025002040F66A17B94200D100BF184681
:101A8000C1F3421401F01F06012707FA06F5012CE5
:101A900001D10C3004E0022C01D1103000E01430F0
:101AA0001AB107682F43076002E00768AF43076079
:101AB000F0BD00002DE9F04786B005460E46002433
:101AC000A24600BFA1460027B08900B100BF2F4643
:101AD0002C8A4CF6FF700440F08804432C82AC89B9
:101AE0004EF6F3100440B0883189084371890843E9
:101AF0000443AC81AC8A4FF6FF400440B0890443F4
:101B0000AC8201A8FFF73CF81F48874202D1DDF8FC
:101B100010A001E0DDF80CA0A88900F4004040B15D
:101B20000AEBCA0000EB0A1031684900B0FBF1F87B
:101B300007E00AEBCA0000EB0A1031688900B0FB2D
:101B4000F1F86420B8FBF0F004012009642101FBE6
:101B50001089A88900F4004040B1322000EBC90090
:101B6000B0FBF1F000F00700044308E0322000EB86
:101B700009106421B0FBF1F000F00F0004432C8148
:101B800006B0BDE8F08700000038014001468888B3
:101B9000C0F30800704700BFFEE702E008C8121F4C
:101BA00008C1002AFAD170477047002001E001C146
:101BB000121F002AFBD1704710B56FF00400FFF729
:101BC000D9F80A4800680A49B0FBF1F009490870E1
:101BD0000846007800EB4001C1EBC0104FF6FF71E2
:101BE00001EAC0000449088010BD00001400002074
:101BF00000127A002C0000202E0000200146114A1D
:101C000012884A434FF0E0235A6100229A611A4633
:101C1000126942F001021A6100BF4FF0E022106920
:101C200000F001021AB100F48032002AF5D04FF022
:101C3000E022126922F001024FF0E0231A61002233
:101C40009A6170472E0000204FF4A060FEF73EFE20
:101C5000FFF7B2FF4FF4E13000F054F8FEF7D4FD87
:101C6000FEF7B8FDFEF7B0FBFFF7CAF8FEF750FE2F
:101C7000FEF736FEFEF7EEFFFEF708FB40F29F513F
:101C800040F2E730FFF786FB40F2671140F2CF7079
:101C9000FFF7F0F940F2671140F2CF70FFF762FAF8
:101CA0004FF4FA711448FFF7DAFD4FF4FA71124855
:101CB000FFF7D7FD4FF4FA710807FFF7D4FD4FF493
:101CC000FA710807FFF7D1FD47214FF6FF70FFF7C4
:101CD000A9FA0FE0FEF720FC4FF49670FFF78EFF95
:101CE00006480068C0430649C1F894014FF4967055
:101CF000FFF784FFEEE700000004004094812142DA
:101D00000080214210B586B00446012144F204004F
:101D1000FEF716FF4FF40070ADF8140003208DF8A5
:101D2000160018208DF8170005A91C48FEF74EFC78
:101D30004FF48060ADF8140004208DF8170005A959
:101D40001648FEF743FC25208DF8000003208DF88F
:101D500001008DF8020001208DF803006846FEF7AF
:101D60007DFD01940020ADF80800ADF80A00ADF843
:101D70000C00ADF810000C20ADF80E0001A90848C9
:101D8000FFF798FE012240F225510548FFF76CFE4F
:101D900001210348FFF732FE06B010BD00080140E4
:101DA00000380140C41D000800000020440000006D
:101DB0009A1B0008081E0008440000200C080000C0
:101DC000AA1B000800000000000000009A99993F3B
:101DD000000000000000000000A24A040000000013
:101DE00000000000010203040607080900000000CB
:101DF00000000000000000000102030401020304CF
:081E00000607080902040608A8
:0400000508000145A9
:00000001FF
